:020000023000CC
:10E000000D9472F00D949BF00D949BF00D949BF089
:10E010000D949BF00D949BF00D949BF00D949BF050
:10E020000D949BF00D949BF00D949BF00D949BF040
:10E030000D949BF00D949BF00D949BF00D949BF030
:10E040000D949BF00D949BF00D949BF00D949BF020
:10E050000D949BF00D949BF00D949BF00D949BF010
:10E060000D949BF00D949BF00D949BF00D949BF000
:10E070000D949BF00D949BF00D949BF00D949BF0F0
:10E080000D949BF00D949BF00D949BF00D949BF0E0
:10E090000D949BF00D949BF00D949BF00D949BF0D0
:10E0A0000D949BF00D949BF00D949BF00D949BF0C0
:10E0B0000D949BF00D949BF00D949BF00D949BF0B0
:10E0C0000D949BF00D949BF00D949BF00D949BF0A0
:10E0D0000D949BF00D949BF00D949BF00D949BF090
:10E0E0000D949BF011241FBECFEFD1E2DEBFCDBF58
:10E0F00001E00CBF12E0A0E0B2E0EAEEFCEE03E0CB
:10E100000BBF02C007900D92A235B107D9F712E0FC
:10E11000A2E5B2E001C01D92A435B107E1F70F946A
:10E12000C0F00D9473F601E20EBF0FEF0DBF112486
:10E130001FBE0D94C0F00D9400F020E030E040EDE3
:10E1400057E005C0FA013197F1F72F5F3F4F2817CD
:10E150003907C0F30895E0ECF0E0808182608083AD
:10E1600020E12093C40098E19093C100E0EDF0E03D
:10E170008081826080832093D4009093D1000895A1
:10E180002F923F924F925F926F927F928F929F92C7
:10E19000AF92BF92CF92DF92EF92FF920F931F93B5
:10E1A000DF93CF93CDB7DEB7C053D1400FB6F8940D
:10E1B000DEBF0FBECDBF01E20EBF0FEF0DBF94B7A4
:10E1C000F894A89514BE80916000886180936000E7
:10E1D00010926000789493FF05C0E0915202F09194
:10E1E00053021995279A2F9A8091C00082608093DC
:10E1F000C00080E18093C40088E18093C1000000EA
:10E200000F94ABF00F94D2F50F94CAF587E10F94F9
:10E21000CEF580E092E00F94B6F58DE20F94CEF546
:10E220008EE092E00F94B6F5EE24FF248701F4E02F
:10E23000AF2EB12CCC24DD2424C0C5010197F1F709
:10E240000894E11CF11C011D111D21E2E2162EE4CF
:10E25000F20620E0020720E0120718F0E1E0CE2EDF
:10E26000D12CC801B70127EC3BE140E050E00F940E
:10E2700043F6611571058105910519F485B1805842
:10E2800085B98091C00087FD03C0C114D104A9F2F3
:10E29000A6014F5F5F4FC25EDE4F59834883CE5168
:10E2A000D140C25EDE4F88819981CE51D140019725
:10E2B00009F0CDC3CD5DDE4F19821882C352D14023
:10E2C000A0E0CE5DDE4F1882C252D14044245524D6
:10E2D00022243324C05EDE4F19821882C052D140FE
:10E2E000882499245401CB5DDE4F188219821A824A
:10E2F0001B82C552D140ABBEF40127913691C15D5E
:10E30000DE4F39832883CF52D1409DC3C25EDE4F9A
:10E3100048815981CE51D1404130510509F52091B4
:10E32000C600C25EDE4F19821882CE51D14022C093
:10E330002F5F3F4F4F4F5F4F213082E138078AE711
:10E34000480780E0580780F0C15DDE4FE881F98121
:10E35000CF52D140EF5FFF4F19F0EE27FF2709940E
:10E3600020E030E040E050E08091C00087FFE0CF47
:10E370002091C600933011F1943028F4913089F047
:10E380009230B8F408C0953061F19530F0F09630D5
:10E3900009F048C043C02B3109F0B8CF91E0ABE1A0
:10E3A000B5CFA227CE5DDE4F2883C252D14092E086
:10E3B000ADCF722F60E0A22793E0A8CF822F90E02C
:10E3C000682B792BA22794E0A1CF2E3009F05AC3F5
:10E3D000A22795E0CD5DDE4F19821882C352D1404D
:10E3E00095CFE1E0F0E0EC0FFD1FCD5DDE4F488101
:10E3F0005981C352D140E40FF51F20834F5F5F4F17
:10E40000CD5DDE4F59834883C352D140A2274617C2
:10E41000570709F07BCFBA0196E078CF2A1709F0A9
:10E4200031C303C0973009F071CF0894411C511CCF
:10E430005BE04516510408F45DC00894211C311CB2
:10E4400086E02816310410F02224332480E00F9453
:10E45000CEF5C05EDE4FA881B981C052D140AB2B52
:10E46000B1F484E10F94CEF580E292E00F94B6F51A
:10E470008DE20F94CEF584E392E00F94B6F5E1E0DF
:10E48000F0E0C05EDE4FF983E883C052D1408BE5F7
:10E490000F94CEF588E492E00F94B6F5F2E02F16D3
:10E4A0003104E9F023E02216310440F42114310450
:10E4B00091F031E023163104D9F413C044E024165E
:10E4C000310469F054E02516310438F085E028164F
:10E4D000310471F406C08CE505C08FE503C08EE5FC
:10E4E00001C08DE50F94CEF58FE492E00F94B6F560
:10E4F000442455249981933109F40EC19431C0F418
:10E50000963009F4DCC0973048F4923069F19330CA
:10E5100009F470C0913009F017C256C0913109F466
:10E520007AC0923108F0C0C0903109F00DC21CC011
:10E53000983109F488C0993150F4953109F4ECC050
:10E54000953108F49AC1963109F0FEC196C19A310D
:10E5500009F471C09A3108F496C09B3109F460C087
:10E560009D3109F0F1C102C090E056C09D81903309
:10E5700059F48F81882311F49EE11CC0813011F081
:10E5800091E018C098E916C0892F807591F09035F8
:10E5900039F489E0E0E0F0E08093570094910AC0FC
:10E5A000983539F4E3E0F0E089E0809357009491E6
:10E5B00001C090E01A821B828D818C831D829E8314
:10E5C0001F8227E030E0C4C11A8288E08B8381E497
:10E5D0008C8386E58D8382E58E8389E48F8383E552
:10E5E000888780E589878FE58A8782E38B872BE0A0
:10E5F00030E0AEC18A81813941F0823941F0803901
:10E6000011F48FE005C080E003C082E001C08AE021
:10E610001A828B8346C091E01A8222E030E099C1D1
:10E620008D81882311F48EE128C0813011F081E0C2
:10E6300024C088E922C01A8289E0E1E0F0E08093FA
:10E64000570084911BC08B81803589F48C81883080
:10E6500039F4E2E0F0E089E08093570084910DC046
:10E6600089E0E0E0F0E080935700849106C0E3E0A9
:10E67000F0E089E08093570084911A828B831C829A
:10E6800024E030E065C18D81836C99E0E1E0F0E049
:10E69000082E90935700E89507B600FCFDCF1A822C
:10E6A0001B8223E030E054C180EC8A83CB5DDE4FD7
:10E6B000188219821A821B82C552D14047C18A81B1
:10E6C00090E0A0E0B0E0B82EAA24992488248B81A1
:10E6D00090E0A0E0B0E0DC0199278827882A992AF9
:10E6E000AA2ABB2A8D8190E0A0E0B0E0882A992A6E
:10E6F000AA2ABB2A8C8190E0A0E0B0E0BA2FA92F13
:10E70000982F8827882A992AAA2ABB2A880C991C1C
:10E71000AA1CBB1C1A821AC1FA81C65DDE4FF8839F
:10E72000CA52D140C75DDE4F1882C952D1408B8199
:10E73000C82EDD24C75DDE4F28813981C952D14002
:10E74000C22AD32A933109F06DC0CB5DDE4F888198
:10E750009981AA81BB81C552D1408030E0EC9E07EF
:10E76000E3E0AE07E0E0BE07F0F423E0FC01A09395
:10E770005B0020935700E89507B600FCFDCFCB5D0A
:10E78000DE4F88819981AA81BB81C552D1408050DA
:10E790009F4FAF4FBF4FCB5DDE4F88839983AA83D6
:10E7A000BB83C552D140B501A401DE011B968C91FB
:10E7B00011962C9111971296C45DDE4F2883CC528E
:10E7C000D140C55DDE4F1882CB52D14090E0C55D8F
:10E7D000DE4FE881F981CB52D1408E2B9F2B21E077
:10E7E0000C01FA0160935B0020935700E895112417
:10E7F0004E5F5F4F6F4F7F4F8EEF9FEFC80ED91E5A
:10E80000C114D104A1F695E0F401A0925B009093AD
:10E810005700E89507B600FCFDCF81E180935700D3
:10E82000E89527C0D501C401B695A795979587951A
:10E830007C0186012BE0622E712C6C0E7D1E0BC0BC
:10E84000D3016D913D01C7010F9465F60894E11C59
:10E85000F11C015010400115110591F7A60160E06F
:10E8600070E0440F551F661F771F480D591D6A1D24
:10E870007B1D1A824A015B0169C0BA81C25DDE4F0D
:10E88000B883CE52D140C35DDE4F1882CD52D14005
:10E890008B81C82EDD24C35DDE4FE881F981CD5226
:10E8A000D140CE2ADF2A1A8289818431D1F496019F
:10E8B000BE016D5F7F4FABBEF40187919691DB0186
:10E8C0008C9311969C936E5F7F4F82E090E0A0E066
:10E8D000B0E0880E991EAA1EBB1E2250304059F788
:10E8E0002DC0A5019401BE016D5F7F4F0894C10842
:10E8F000D108760100E010E00894C11CD11C0894F6
:10E90000E11CF11C011D111DE80CF91C0A1D1B1D49
:10E9100021BDBB27A52F942F832F82BD2F5F3F4F93
:10E920004F4F5F4FF89A80B5DB018D93BD012E15D7
:10E930003F054007510761F749015A0196012D5FD4
:10E940003F4FFB01108204C080EC8A8322E030E05C
:10E9500090E0FBE1F093C6008091C00086FFFCCF01
:10E960008091C00080648093C000CE5DDE4F4881FE
:10E97000C252D1404093C6008091C00086FFFCCFB8
:10E980008091C00080648093C000532F3093C600F4
:10E990008091C00086FFFCCF8091C000806480938E
:10E9A000C000422F2093C6008091C00086FFFCCF9C
:10E9B0008091C00080648093C0008EE08093C60088
:10E9C0008091C00086FFFCCF8091C000806480935E
:10E9D000C000A5E1CE5DDE4F8881C252D140A8279C
:10E9E000A427A527FE01319610C040814093C600A0
:10E9F0008091C00086FFFCCF31968091C00080647A
:10EA00008093C000A427215030402115310569F7BB
:10EA1000A093C6008091C00086FFFCCF8091C0000B
:10EA200080648093C00085B1805885B9992379F4BA
:10EA3000CE5DDE4F9881C252D1409F5FCE5DDE4FEA
:10EA40009883C252D14090E060E070E05FCC27989C
:10EA50002F9880E090E020ED37E0F9013197F1F751
:10EA6000019684369105C9F700008091C0008D7F22
:10EA70008093C00081E180935700E895EE27FF273F
:10EA80000994FFCF90E042CC282F662311F05D9AC5
:10EA900001C05D9827FF02C0A39A01C0A398922FDE
:10EAA00026FF04C080910201806803C080910201AA
:10EAB0008F778093020195FF02C0A49A01C0A498A9
:10EAC00094FF02C05A9A01C05A9800C05B9A82E033
:10EAD0008A95F1F700C05B9893FF02C0A39A01C02A
:10EAE000A39892FF04C080910201806803C08091C6
:10EAF00002018F778093020191FF02C0A49A01C0A6
:10EB0000A49890FF02C05A9A01C05A9800C05B9A1C
:10EB100092E09A95F1F700C05B98A39A8091020168
:10EB2000806880930201A49A5A9A662341F42430A3
:10EB300030F48FE999E10197F1F700C003C095ED3A
:10EB40009A95F1F70000089561E00F9444F5089557
:10EB5000CF93DF93EC0102C00F94A4F5FE01219640
:10EB600084918823C9F7DF91CF910895CF93DF93E4
:10EB7000EC0102C00F94A4F589918823D9F7DF91A5
:10EB8000CF91089560E00F9444F5089582E00F94CA
:10EB9000C2F5089581E00F94C2F5089580580F944E
:10EBA000C2F50895539A559A9B9AE1E0F1E080816D
:10EBB000806880839C9A529A5B985D98A39AE2E061
:10EBC000F1E0808180688083A49A5A9A8FE59AEE5A
:10EBD0000197F1F700C00000A39880818F778083B0
:10EBE00000C05B9A92E09A95F1F700C05B988FE0C5
:10EBF00090E40197F1F700C000005B9A92E09A95CB
:10EC0000F1F700C05B988FE891E00197F1F700C041
:10EC100000005B9A92E09A95F1F700C05B9885ED51
:10EC20008A95F1F700005A9800C05B9A92E09A9595
:10EC3000F1F700C05B9885ED8A95F1F700005A98CE
:10EC400000C05B9A92E09A95F1F700C05B9882E071
:10EC50008A95F1F700C0A39A00C05B9A92E09A955A
:10EC6000F1F700C05B9885ED8A95F1F7000088E028
:10EC70000F94C2F50F94CAF586E00F94C2F58CE0AC
:10EC80000F94C2F50895A1E21A2EAA1BBB1BFD0129
:10EC90000DC0AA1FBB1FEE1FFF1FA217B307E4077B
:10ECA000F50720F0A21BB30BE40BF50B661F771FD3
:10ECB000881F991F1A9469F76095709580959095B3
:10ECC0009B01AC01BD01CF010895262FF999FECF1C
:10ECD0001FBA92BD81BD20BD0FB6F894FA9AF99A79
:0AECE0000FBE01960895F894FFCFCF
:10ECEA0020334420205072696E74657273002020AC
:10ECFA00204F726967696E616C205072757361008A
:10ED0A0020446F206E6F7420646973636F6E6E6542
:10ED1A006374210020557067726164696E672066AA
:10ED2A0069726D77617265007C202020207C002A40
:02ED3A000000D7
:040000033000E000E9
:00000001FF
